:040000006F0010215C
:10000400000000000000000090000020DE0400203A
:10001400A9BDF9F3900000200000000000000000DA
:10002400900000209000002000000000000000006C
:10003400900000200000000090000020000000005C
:1000440090000020900000209000002090000020EC
:1000540090000020900000209000002090000020DC
:1000640090000020900000209000002090000020CC
:1000740090000020900000209000002090000020BC
:1000840090000020900000209000002090000020AC
:1000940001A073270080218B971700009387C797CF
:1000A40019CB732700809716000023A7E696984380
:1000B4005D9B731007800100010037170040930611
:1000C40070052300D704930680FA2300D7040100A7
:1000D40001008346B70493F6F60DA305D704230065
:1000E4000704732600809443A18AD18E73900680FE
:1000F4009716000023A206920100010093760502E0
:100104006384061A0347A700118B25EB732700802D
:10011400218B19CB732700809716000023AEE68E3F
:1001240098435D9B7310078001000100371700405E
:10013400930670052300D704930680FA2300D7049E
:10014400010001008346A70093E646002305D7007B
:1001540023000704F32600809843218B558F7310E6
:100164000780171700002329078A010001001307DD
:10017400004B010001007D176DFF73270080218B68
:1001840019CB732700809716000023A7E6889843AD
:100194005D9B731007800100010037170040930630
:1001A40070052300D704930680FA2300D7040100C6
:1001B40001007D892314A700010001000100010052
:1001C40023000704F32600809843218B558F731076
:1001D40007801717000023210784010001007327FB
:1001E4000080218B19CB732700809716000023A56C
:1001F400E68298435D9B7310078001000100371766
:100204000040930670052300D704930680FA230068
:10021400D7040100010001000100B72600401306C5
:100224001005A383C68023000704F32600809843A7
:10023400218B558F7310078017070000232E077C2E
:100244000100010073270080218B19CB73270080E4
:100254009706000023A2E67C98435D9B73100780F9
:100264000100010037170040930670052300D704EE
:10027400930680FA2300D704010001008346B704E3
:1002840093E60608A305D704230007047327008018
:100294009C43A18BD98F739007809707000023ADEF
:1002A40007760100010082809376050463870616B1
:1002B4000347A700418B25EB73270080218B19CBC3
:1002C400732700809706000023A8E67498435D9B7B
:1002D4007310078001000100371700409306700572
:1002E4002300D704930680FA2300D70401000100F9
:1002F4008346A70093E606012305D70023000704DD
:10030400F32600809843218B558F731007801707BD
:10031400000023230770010001001307007D010082
:1003240001007D176DFF73270080218B19CB732784
:1003340000809706000023A1E66E98435D9B73102E
:100344000780010001003717004093067005230061
:10035400D704930680FA2300D704010001009376A2
:10036400F50193E606042314D700010001000100FF
:10037400010023000704F32600809843218B558F46
:100384007310078017070000232807680100010085
:10039400130760046312E50473270080218B19CBD3
:1003A400732700809706000023A8E66698435D9BA8
:1003B4007310078001000100371700409306700591
:1003C4002300D704930680FA2300D7040100010018
:1003D400B72600400946B1B573270080218B19CB9D
:1003E400732700809706000023A8E66298435D9B6C
:1003F4007310078001000100371700409306700551
:100404002300D704930680FA2300D70401000100D7
:10041400B72600401306200529B573270080218BD9
:1004240019CB732700809706000023A7E65E984344
:100434005D9B73100780010001003717004093068D
:1004440070052300D704930680FA2300D704010023
:1004540001008356870093E6060C2314D700E1B30A
:100464004111814601468145114506C61D2CF327DD
:100474000080A18B970600009386065A99CBF32738
:100484000080170700002329F7589C42DD9B7390D6
:10049400078001000100B71700401307700523808F
:1004A400E704130780FA2380E7040100010003C76F
:1004B4006704136717002383E70423800704732763
:1004C40000809C42A18BD98F73900780970700000E
:1004D40023A4075401000100B240410182808146F7
:1004E400014681451145752AF3270080A18B170722
:1004F40000001307675299CBF3270080970600008A
:1005040023ACF6501C43DD9B73900780010001006F
:10051400B7170040930670052380D704930680FA2A
:100524002380D70401000100FD562396D7022380BF
:100534000704F32600801C43A18BD58F739007809A
:100544009707000023AA074C01000100F32700804D
:10055400A18B99CBF32700809706000023AEF64ABF
:100564001C43DD9B7390078001000100B717004016
:10057400930670052380D704930680FA2380D7045A
:100584000100010083C6670493E616002383D704A1
:1005940023800704F32600801C43A18BD58F73901E
:1005A40007809707000023A907460100010001A066
:1005B400BD473305F50201007D1575FD82804111AB
:1005C40022C426C206C6AA84014463179400B2401A
:1005D400224492444101828005041305803E420472
:1005E400C13F4180DDB72303048015472303E48022
:1005F40001002302A480828083076480E3CE07FE87
:1006040023030480828083076480E3CE07FE0345CE
:100614004480828083076480E3CE07FE2302A480A3
:100624008280411126C44AC24EC006C61377F50B18
:10063400AD47AA892E8995446306F70019456537A5
:10064400653F8D444E854537FD59FD14639834014B
:10065400B240A244124982494101828013550901E2
:100664001375F50F453F2209CDB7011126CC06CEEF
:10067400B704080051371545BD37713769372AC6A5
:10068400A53F32459377150089EB13651500137563
:10069400F50FF240E24405618280FD14E9FC014556
:1006A400CDBF397126DC4ADA4ED852D656D45AD246
:1006B4005ED006DE62CE66CCB7E700E07D5783AA43
:1006C400070022C603AA470023A0E71823A2E718BD
:1006D400B7170040130770052380E704130780FA57
:1006E4002380E70483C74704930B75FFB684E207AE
:1006F40093FBFB0F8546AA892E8B32893724004051
:10070400E187015763FA76016308D5008946130728
:1007140000026313D5000157D98F93F7F70FB71C65
:1007240000402382FC0411472303E4801305F00FE7
:100734005D3D094CD135636D7C11B7050700DA9531
:1007440037870700795563F2E504B3879500636E34
:10075400F702370B0800A94733EB65016399F906E3
:1007640089E48144513D26850DA0DA850945553D2E
:1007740005090345F9FFFD14050B693D81C4937711
:10078400FB0FFDF7DD3569FD7D55B71700401307F5
:1007940070052380E704130780FA2380E70403C766
:1007A4004704418B2382E704F250B7E700E023A01B
:1007B400571123A24711E25432445259C259325AB2
:1007C400A25A125B825B724CE24C21618280A54783
:1007D4006395F90685691309F00FB3069900B3749C
:1007E4002B01B6941349F9FFB3749900856B3379DF
:1007F4006901416B9387F9FFB3F7270199E363FC20
:10080400340193D94900C147E3E637FF99BF05692D
:10081400C1697D19D9B71305800D63886901130572
:1008240000026384790113051008CA85DD3B353D58
:1008340021DD4E99B3843441D9B7DA852D45D533BA
:10084400CA94E30099F205097D3BA30FA9FED5BF25
:100854009387F9FF93F7F70F6361FC0C83C71C04BC
:1008640013073008631FF70437070800636BEB04B2
:10087400B3079B00B706100063F5D704334BEB00B6
:1008840089476393F9068980D549E38C04ECDA85BA
:100894000945413B11090327C9FF91472320E480FF
:1008A40003076480E34E07FE23033481FD17EDFB49
:1008B400FD14110B81C49377FB0FE9FF7D3371F5B0
:1008C400E1B5B717004003C75704B707080013770B
:1008D400070219E3B78707007955E378FBEA330782
:1008E4009B00E3FFE7F855B58547E382F9F2DA8523
:1008F4002D45053B9389F4FFE38504E6293393F7FB
:10090400390091EB832604800327090093074900EB
:10091400E39AE6E43E89CE84F1BFB5476396F900D5
:100924001305900BC93135BDB1471305B00AE38BEC
:10093400F9FE99476391F904B7050800B365BB0054
:100944002D45C53181448D4BA14975396396740198
:10095400832704802320F9008504E39834FF832748
:10096400048013172B01635507002312F900D5BB2C
:100974002322F900FDB39D476399F90281451305CC
:10098400B0044531BD442320090023220900FD5948
:100994009D3993F77400CA9703C70700FD14398D76
:1009A4002380A700E39634FF6DBBA1476392F9044B
:1009B4006D398144630D0B008D479304C0036308B4
:1009C400FB009304000563048B0193044004137536
:1009D400C507E30895D81945393139390545213119
:1009E40026850D3909453D314931E31C05D669BBDE
:1009F40091476399F90013056006F536F53E130532
:0C0A040090090DB7E38F09D4F154A9BB91
:100A10009711002093810180177100201301815EDE
:100A20001305400097F5FF1F9385C55D170600204D
:100A3000130606FE63FAC5008322050023A05500B5
:100A400011059105E3EAC5FE1705000013050552DF
:100A5000970500209385C5FB17060020130686FB2B
:100A600063FAC5008322050023A0550011059105F6
:100A7000E3EAC5FE170500201305C5F993858180BB
:100A80006377B500232005001105E36DB5FEFD4237
:100A9000739002BC8D4273904280930280087390E1
:100AA000023097F2FF1F9382E25593E23200739077
:100AB0005230970200009382420873901234730000
:100AC0002030B717004003A7870A8566558F23A4F7
:100AD000E70A03A7C70A1367074023A6E70A82802D
:100AE000B717004003A7870A85661367074023A44A
:100AF000E70A03A7C70A558F23A6E70A8280B7171C
:100B0000004003A7C70A85661367074023A6E70AC4
:100B100003A7C70A558F23A6E70A8280411122C482
:100B200006C62A8459269315050122852244B2401F
:100B3000C1814101B9A601111305800406CE22CC62
:100B40004AC84EC652C456C25AC026CA97F0FF1FA2
:100B5000E7806054914513050040F92A91450565E9
:100B6000E12A854513050008C12A05658545130559
:100B70000580D92285450545C122371700408327C6
:100B8000870A85451305001093E707202324F70AF9
:100B900065228D45130500200564792A3719004028
:100BA000452C8549130A9002130B0480970A0020F4
:100BB000938A4AE68327490A858B6396071611377D
:100BC000854497070020A38707E48327490A93F702
:100BD0000708639407129707002083C7B7E3639E53
:100BE000071083C70A008507170700202304F7E2D0
:100BF0003937170500001305A52C0D37130584BBE5
:100C000097000020E780E09B93078002639EF4003A
:100C1000FD35170500001305652B0937130584BB47
:100C200097000020E780E099653D85471707002081
:100C3000A302F7DE85448327490AB3F76701E9EB8E
:100C40009707002083C717DD6394370D83C70A0019
:100C5000890717070020230FF7DA5535170500001D
:100C600013058527653D130584BB97000020E780A9
:100C7000409593078002639EF400513517050000EC
:100C800013054526613D130584BB97000020E780CE
:100C900040939707002083C7E7D717050000130587
:100CA000252595C3170500001305C525638D37015C
:100CB000094717050000130565266386E700170539
:100CC000000013052527993D130504FA970000201D
:100CD000E780208F97070020238E07D2DD3313058E
:100CE000200397000020E780C08D113D1305803E52
:100CF00097000020E780E08C75BD8504154593F4CE
:100D0000F40F97000020E780C08BE39044ED09B713
:100D10008504154593F4F40F97000020E780608A5E
:100D2000E39B44F199BFE13B170500001305C52182
:100D3000F533130584BB6DBF914763EEB702170708
:100D40000000130767218A05BA959C41BA978287EC
:100D5000B717004003A7470B1345F5FF698F23AA78
:100D6000E70A03A7070B698F23A8E70A03A7070A67
:100D7000798D23A0A70A8280B717004083A6470B6E
:100D80001347F5FFF98E23AAD70A83A6070B558DC3
:100D900023A8A70A83A6070A758F23A0E70A8280E3
:100DA000B717004003A7470B498F23AAE70A03A7F9
:100DB000070B1345F5FF45BFB717004083A6470B48
:100DC0001347F5FF758F23AAE70A03A7070A598D72
:100DD0004DB7B717004003A7470B498FEDB7B717BB
:100DE000004003D58700420541819377050491EBCC
:100DF0009377F5013755E801130505803345F50272
:100E000082809377050C130700046397E7009377BC
:100E1000F50137459C1CCDB72165130505D08280AF
:100E2000411122C406C62A845D3F2947B307E50263
:100E3000B2408D83B3D7870222449507B3D7E70228
:100E400037370040C207C1832316F7404101828033
:100E5000716541111305052006C6D937B737004023
:100E6000130770F82381E7400D47A381E74013077C
:100E70000004A380E74005472387E740B2404101D3
:100E80008280B73700402147B736004091E1828029
:100E900003C6B740E30CC7FE05050346F5FFFD1585
:100EA000C2052384C640C181D5B7AA87850703C779
:100EB000F7FF6DFF3385A7407D1582803C473EC913
:100EC000CFCBF8B3C9B9A6003C473EC9CFCBF8CACF
:100ED000A7B0DC003C473EBDE2CBF8B3C9B9A600E1
:100EE0003C473EBDE2CBF8CAA7B0DC003C473EC958
:100EF000CFCBF8BDE2CBF8B6BCCAA7B0DC0000008F
:100F00003C473EC9CFCBF8B3C9B9A6A3ACBDE2CB31
:100F1000F8CAA7B0DC0000003C473EBDE2CBF8B306
:100F2000C9B9A6A3ACC9CFCBF8CAA7B0DC000000F2
:100F30003C473EC9CFCBF8BDE2CBF8B6BCB3C9B98C
:100F4000A60000003C473ECEB4BCECB2E2B5BDCD3D
:100F5000B7BFF800FCFDFFFF24FEFFFF4CFEFFFFC4
:080F600064FEFFFF7EFEFFFFAF
:00000001FF
